{
	"data": {
		"bytecode": {
			"linkReferences": {},
			"object": "6060604052620f42406000556103e86001556000600255341561001e57fe5b5b6104e48061002e6000396000f30060606040523615610081576000357c0100000000000000000000000000000000000000000000000000000000900463ffffffff16806310c51c1b146100835780631a55e8a2146100cd5780631facd12d146100f35780636a3e3cb614610119578063c7d9d96a14610158578063c899ff4e146101a2578063db3f290b146101c8575bfe5b341561008b57fe5b6100b7600480803573ffffffffffffffffffffffffffffffffffffffff16906020019091905050610207565b6040518082815260200191505060405180910390f35b34156100d557fe5b6100dd610251565b6040518082815260200191505060405180910390f35b34156100fb57fe5b610103610257565b6040518082815260200191505060405180910390f35b341561012157fe5b610156600480803573ffffffffffffffffffffffffffffffffffffffff1690602001909190803590602001909190505061025d565b005b341561016057fe5b61018c600480803573ffffffffffffffffffffffffffffffffffffffff1690602001909190505061034f565b6040518082815260200191505060405180910390f35b34156101aa57fe5b6101b2610399565b6040518082815260200191505060405180910390f35b34156101d057fe5b610205600480803573ffffffffffffffffffffffffffffffffffffffff1690602001909190803590602001909190505061039f565b005b6000600460008373ffffffffffffffffffffffffffffffffffffffff1673ffffffffffffffffffffffffffffffffffffffff1681526020019081526020016000205490505b919050565b60015481565b60025481565b80600360008473ffffffffffffffffffffffffffffffffffffffff1673ffffffffffffffffffffffffffffffffffffffff168152602001908152602001600020600082825403925050819055506103e8600360008473ffffffffffffffffffffffffffffffffffffffff1673ffffffffffffffffffffffffffffffffffffffff168152602001908152602001600020548115156102f657fe5b04600460008473ffffffffffffffffffffffffffffffffffffffff1673ffffffffffffffffffffffffffffffffffffffff16815260200190815260200160002081905550806002600082825403925050819055505b5050565b6000600360008373ffffffffffffffffffffffffffffffffffffffff1673ffffffffffffffffffffffffffffffffffffffff1681526020019081526020016000205490505b919050565b60005481565b600081600054600254600154830201111515156103bc5760006000fd5b6001548302915081600360008673ffffffffffffffffffffffffffffffffffffffff1673ffffffffffffffffffffffffffffffffffffffff168152602001908152602001600020600082825401925050819055506103e8600360008673ffffffffffffffffffffffffffffffffffffffff1673ffffffffffffffffffffffffffffffffffffffff1681526020019081526020016000205481151561045c57fe5b04600460008673ffffffffffffffffffffffffffffffffffffffff1673ffffffffffffffffffffffffffffffffffffffff16815260200190815260200160002081905550816002600082825401925050819055505b5b505050505600a165627a7a723058206e0c01300f540a018e0a4c3e044644359b378dda17ca57b22d3a5078aa3b3d1e0029",
			"opcodes": "PUSH1 0x60 PUSH1 0x40 MSTORE PUSH3 0xF4240 PUSH1 0x0 SSTORE PUSH2 0x3E8 PUSH1 0x1 SSTORE PUSH1 0x0 PUSH1 0x2 SSTORE CALLVALUE ISZERO PUSH2 0x1E JUMPI INVALID JUMPDEST JUMPDEST PUSH2 0x4E4 DUP1 PUSH2 0x2E PUSH1 0x0 CODECOPY PUSH1 0x0 RETURN STOP PUSH1 0x60 PUSH1 0x40 MSTORE CALLDATASIZE ISZERO PUSH2 0x81 JUMPI PUSH1 0x0 CALLDATALOAD PUSH29 0x100000000000000000000000000000000000000000000000000000000 SWAP1 DIV PUSH4 0xFFFFFFFF AND DUP1 PUSH4 0x10C51C1B EQ PUSH2 0x83 JUMPI DUP1 PUSH4 0x1A55E8A2 EQ PUSH2 0xCD JUMPI DUP1 PUSH4 0x1FACD12D EQ PUSH2 0xF3 JUMPI DUP1 PUSH4 0x6A3E3CB6 EQ PUSH2 0x119 JUMPI DUP1 PUSH4 0xC7D9D96A EQ PUSH2 0x158 JUMPI DUP1 PUSH4 0xC899FF4E EQ PUSH2 0x1A2 JUMPI DUP1 PUSH4 0xDB3F290B EQ PUSH2 0x1C8 JUMPI JUMPDEST INVALID JUMPDEST CALLVALUE ISZERO PUSH2 0x8B JUMPI INVALID JUMPDEST PUSH2 0xB7 PUSH1 0x4 DUP1 DUP1 CALLDATALOAD PUSH20 0xFFFFFFFFFFFFFFFFFFFFFFFFFFFFFFFFFFFFFFFF AND SWAP1 PUSH1 0x20 ADD SWAP1 SWAP2 SWAP1 POP POP PUSH2 0x207 JUMP JUMPDEST PUSH1 0x40 MLOAD DUP1 DUP3 DUP2 MSTORE PUSH1 0x20 ADD SWAP2 POP POP PUSH1 0x40 MLOAD DUP1 SWAP2 SUB SWAP1 RETURN JUMPDEST CALLVALUE ISZERO PUSH2 0xD5 JUMPI INVALID JUMPDEST PUSH2 0xDD PUSH2 0x251 JUMP JUMPDEST PUSH1 0x40 MLOAD DUP1 DUP3 DUP2 MSTORE PUSH1 0x20 ADD SWAP2 POP POP PUSH1 0x40 MLOAD DUP1 SWAP2 SUB SWAP1 RETURN JUMPDEST CALLVALUE ISZERO PUSH2 0xFB JUMPI INVALID JUMPDEST PUSH2 0x103 PUSH2 0x257 JUMP JUMPDEST PUSH1 0x40 MLOAD DUP1 DUP3 DUP2 MSTORE PUSH1 0x20 ADD SWAP2 POP POP PUSH1 0x40 MLOAD DUP1 SWAP2 SUB SWAP1 RETURN JUMPDEST CALLVALUE ISZERO PUSH2 0x121 JUMPI INVALID JUMPDEST PUSH2 0x156 PUSH1 0x4 DUP1 DUP1 CALLDATALOAD PUSH20 0xFFFFFFFFFFFFFFFFFFFFFFFFFFFFFFFFFFFFFFFF AND SWAP1 PUSH1 0x20 ADD SWAP1 SWAP2 SWAP1 DUP1 CALLDATALOAD SWAP1 PUSH1 0x20 ADD SWAP1 SWAP2 SWAP1 POP POP PUSH2 0x25D JUMP JUMPDEST STOP JUMPDEST CALLVALUE ISZERO PUSH2 0x160 JUMPI INVALID JUMPDEST PUSH2 0x18C PUSH1 0x4 DUP1 DUP1 CALLDATALOAD PUSH20 0xFFFFFFFFFFFFFFFFFFFFFFFFFFFFFFFFFFFFFFFF AND SWAP1 PUSH1 0x20 ADD SWAP1 SWAP2 SWAP1 POP POP PUSH2 0x34F JUMP JUMPDEST PUSH1 0x40 MLOAD DUP1 DUP3 DUP2 MSTORE PUSH1 0x20 ADD SWAP2 POP POP PUSH1 0x40 MLOAD DUP1 SWAP2 SUB SWAP1 RETURN JUMPDEST CALLVALUE ISZERO PUSH2 0x1AA JUMPI INVALID JUMPDEST PUSH2 0x1B2 PUSH2 0x399 JUMP JUMPDEST PUSH1 0x40 MLOAD DUP1 DUP3 DUP2 MSTORE PUSH1 0x20 ADD SWAP2 POP POP PUSH1 0x40 MLOAD DUP1 SWAP2 SUB SWAP1 RETURN JUMPDEST CALLVALUE ISZERO PUSH2 0x1D0 JUMPI INVALID JUMPDEST PUSH2 0x205 PUSH1 0x4 DUP1 DUP1 CALLDATALOAD PUSH20 0xFFFFFFFFFFFFFFFFFFFFFFFFFFFFFFFFFFFFFFFF AND SWAP1 PUSH1 0x20 ADD SWAP1 SWAP2 SWAP1 DUP1 CALLDATALOAD SWAP1 PUSH1 0x20 ADD SWAP1 SWAP2 SWAP1 POP POP PUSH2 0x39F JUMP JUMPDEST STOP JUMPDEST PUSH1 0x0 PUSH1 0x4 PUSH1 0x0 DUP4 PUSH20 0xFFFFFFFFFFFFFFFFFFFFFFFFFFFFFFFFFFFFFFFF AND PUSH20 0xFFFFFFFFFFFFFFFFFFFFFFFFFFFFFFFFFFFFFFFF AND DUP2 MSTORE PUSH1 0x20 ADD SWAP1 DUP2 MSTORE PUSH1 0x20 ADD PUSH1 0x0 SHA3 SLOAD SWAP1 POP JUMPDEST SWAP2 SWAP1 POP JUMP JUMPDEST PUSH1 0x1 SLOAD DUP2 JUMP JUMPDEST PUSH1 0x2 SLOAD DUP2 JUMP JUMPDEST DUP1 PUSH1 0x3 PUSH1 0x0 DUP5 PUSH20 0xFFFFFFFFFFFFFFFFFFFFFFFFFFFFFFFFFFFFFFFF AND PUSH20 0xFFFFFFFFFFFFFFFFFFFFFFFFFFFFFFFFFFFFFFFF AND DUP2 MSTORE PUSH1 0x20 ADD SWAP1 DUP2 MSTORE PUSH1 0x20 ADD PUSH1 0x0 SHA3 PUSH1 0x0 DUP3 DUP3 SLOAD SUB SWAP3 POP POP DUP2 SWAP1 SSTORE POP PUSH2 0x3E8 PUSH1 0x3 PUSH1 0x0 DUP5 PUSH20 0xFFFFFFFFFFFFFFFFFFFFFFFFFFFFFFFFFFFFFFFF AND PUSH20 0xFFFFFFFFFFFFFFFFFFFFFFFFFFFFFFFFFFFFFFFF AND DUP2 MSTORE PUSH1 0x20 ADD SWAP1 DUP2 MSTORE PUSH1 0x20 ADD PUSH1 0x0 SHA3 SLOAD DUP2 ISZERO ISZERO PUSH2 0x2F6 JUMPI INVALID JUMPDEST DIV PUSH1 0x4 PUSH1 0x0 DUP5 PUSH20 0xFFFFFFFFFFFFFFFFFFFFFFFFFFFFFFFFFFFFFFFF AND PUSH20 0xFFFFFFFFFFFFFFFFFFFFFFFFFFFFFFFFFFFFFFFF AND DUP2 MSTORE PUSH1 0x20 ADD SWAP1 DUP2 MSTORE PUSH1 0x20 ADD PUSH1 0x0 SHA3 DUP2 SWAP1 SSTORE POP DUP1 PUSH1 0x2 PUSH1 0x0 DUP3 DUP3 SLOAD SUB SWAP3 POP POP DUP2 SWAP1 SSTORE POP JUMPDEST POP POP JUMP JUMPDEST PUSH1 0x0 PUSH1 0x3 PUSH1 0x0 DUP4 PUSH20 0xFFFFFFFFFFFFFFFFFFFFFFFFFFFFFFFFFFFFFFFF AND PUSH20 0xFFFFFFFFFFFFFFFFFFFFFFFFFFFFFFFFFFFFFFFF AND DUP2 MSTORE PUSH1 0x20 ADD SWAP1 DUP2 MSTORE PUSH1 0x20 ADD PUSH1 0x0 SHA3 SLOAD SWAP1 POP JUMPDEST SWAP2 SWAP1 POP JUMP JUMPDEST PUSH1 0x0 SLOAD DUP2 JUMP JUMPDEST PUSH1 0x0 DUP2 PUSH1 0x0 SLOAD PUSH1 0x2 SLOAD PUSH1 0x1 SLOAD DUP4 MUL ADD GT ISZERO ISZERO ISZERO PUSH2 0x3BC JUMPI PUSH1 0x0 PUSH1 0x0 REVERT JUMPDEST PUSH1 0x1 SLOAD DUP4 MUL SWAP2 POP DUP2 PUSH1 0x3 PUSH1 0x0 DUP7 PUSH20 0xFFFFFFFFFFFFFFFFFFFFFFFFFFFFFFFFFFFFFFFF AND PUSH20 0xFFFFFFFFFFFFFFFFFFFFFFFFFFFFFFFFFFFFFFFF AND DUP2 MSTORE PUSH1 0x20 ADD SWAP1 DUP2 MSTORE PUSH1 0x20 ADD PUSH1 0x0 SHA3 PUSH1 0x0 DUP3 DUP3 SLOAD ADD SWAP3 POP POP DUP2 SWAP1 SSTORE POP PUSH2 0x3E8 PUSH1 0x3 PUSH1 0x0 DUP7 PUSH20 0xFFFFFFFFFFFFFFFFFFFFFFFFFFFFFFFFFFFFFFFF AND PUSH20 0xFFFFFFFFFFFFFFFFFFFFFFFFFFFFFFFFFFFFFFFF AND DUP2 MSTORE PUSH1 0x20 ADD SWAP1 DUP2 MSTORE PUSH1 0x20 ADD PUSH1 0x0 SHA3 SLOAD DUP2 ISZERO ISZERO PUSH2 0x45C JUMPI INVALID JUMPDEST DIV PUSH1 0x4 PUSH1 0x0 DUP7 PUSH20 0xFFFFFFFFFFFFFFFFFFFFFFFFFFFFFFFFFFFFFFFF AND PUSH20 0xFFFFFFFFFFFFFFFFFFFFFFFFFFFFFFFFFFFFFFFF AND DUP2 MSTORE PUSH1 0x20 ADD SWAP1 DUP2 MSTORE PUSH1 0x20 ADD PUSH1 0x0 SHA3 DUP2 SWAP1 SSTORE POP DUP2 PUSH1 0x2 PUSH1 0x0 DUP3 DUP3 SLOAD ADD SWAP3 POP POP DUP2 SWAP1 SSTORE POP JUMPDEST JUMPDEST POP POP POP POP JUMP STOP LOG1 PUSH6 0x627A7A723058 SHA3 PUSH15 0xC01300F540A018E0A4C3E04464435 SWAP12 CALLDATACOPY DUP14 0xda OR 0xca JUMPI 0xb2 0x2d GASPRICE POP PUSH25 0xAA3B3D1E002900000000000000000000000000000000000000 "
		},
		"gasEstimates": {
			"creation": {
				"codeDepositCost": "250400",
				"executionCost": "45308",
				"totalCost": "295708"
			},
			"external": {
				"buy_redcoins(address,uint256)": "62180",
				"equity_in_redcoins(address)": "615",
				"equity_in_usd(address)": "527",
				"max_redcoins()": "493",
				"sell_redcoins(address,uint256)": "61241",
				"total_redcoins_bought()": "427",
				"usd_to_redcoins()": "405"
			}
		},
		"methodIdentifiers": {
			"buy_redcoins(address,uint256)": "db3f290b",
			"equity_in_redcoins(address)": "c7d9d96a",
			"equity_in_usd(address)": "10c51c1b",
			"max_redcoins()": "c899ff4e",
			"sell_redcoins(address,uint256)": "6a3e3cb6",
			"total_redcoins_bought()": "1facd12d",
			"usd_to_redcoins()": "1a55e8a2"
		}
	},
	"abi": [
		{
			"constant": true,
			"inputs": [
				{
					"name": "investor",
					"type": "address"
				}
			],
			"name": "equity_in_usd",
			"outputs": [
				{
					"name": "",
					"type": "uint256"
				}
			],
			"payable": false,
			"type": "function",
			"stateMutability": "view"
		},
		{
			"constant": true,
			"inputs": [],
			"name": "usd_to_redcoins",
			"outputs": [
				{
					"name": "",
					"type": "uint256"
				}
			],
			"payable": false,
			"type": "function",
			"stateMutability": "view"
		},
		{
			"constant": true,
			"inputs": [],
			"name": "total_redcoins_bought",
			"outputs": [
				{
					"name": "",
					"type": "uint256"
				}
			],
			"payable": false,
			"type": "function",
			"stateMutability": "view"
		},
		{
			"constant": false,
			"inputs": [
				{
					"name": "investor",
					"type": "address"
				},
				{
					"name": "redcoins_sold",
					"type": "uint256"
				}
			],
			"name": "sell_redcoins",
			"outputs": [],
			"payable": false,
			"type": "function",
			"stateMutability": "nonpayable"
		},
		{
			"constant": true,
			"inputs": [
				{
					"name": "investor",
					"type": "address"
				}
			],
			"name": "equity_in_redcoins",
			"outputs": [
				{
					"name": "",
					"type": "uint256"
				}
			],
			"payable": false,
			"type": "function",
			"stateMutability": "view"
		},
		{
			"constant": true,
			"inputs": [],
			"name": "max_redcoins",
			"outputs": [
				{
					"name": "",
					"type": "uint256"
				}
			],
			"payable": false,
			"type": "function",
			"stateMutability": "view"
		},
		{
			"constant": false,
			"inputs": [
				{
					"name": "investor",
					"type": "address"
				},
				{
					"name": "usd_invested",
					"type": "uint256"
				}
			],
			"name": "buy_redcoins",
			"outputs": [],
			"payable": false,
			"type": "function",
			"stateMutability": "nonpayable"
		}
	]
}