{
	"redcoins_ico.sol": {
		"redcoin_ico": {
			"abi": [
				{
					"constant": true,
					"inputs": [
						{
							"name": "investor",
							"type": "address"
						}
					],
					"name": "equity_in_usd",
					"outputs": [
						{
							"name": "",
							"type": "uint256"
						}
					],
					"payable": false,
					"type": "function",
					"stateMutability": "view"
				},
				{
					"constant": true,
					"inputs": [],
					"name": "usd_to_redcoins",
					"outputs": [
						{
							"name": "",
							"type": "uint256"
						}
					],
					"payable": false,
					"type": "function",
					"stateMutability": "view"
				},
				{
					"constant": true,
					"inputs": [],
					"name": "total_redcoins_bought",
					"outputs": [
						{
							"name": "",
							"type": "uint256"
						}
					],
					"payable": false,
					"type": "function",
					"stateMutability": "view"
				},
				{
					"constant": false,
					"inputs": [
						{
							"name": "investor",
							"type": "address"
						},
						{
							"name": "redcoins_sold",
							"type": "uint256"
						}
					],
					"name": "sell_redcoins",
					"outputs": [],
					"payable": false,
					"type": "function",
					"stateMutability": "nonpayable"
				},
				{
					"constant": true,
					"inputs": [
						{
							"name": "investor",
							"type": "address"
						}
					],
					"name": "equity_in_redcoins",
					"outputs": [
						{
							"name": "",
							"type": "uint256"
						}
					],
					"payable": false,
					"type": "function",
					"stateMutability": "view"
				},
				{
					"constant": true,
					"inputs": [],
					"name": "max_redcoins",
					"outputs": [
						{
							"name": "",
							"type": "uint256"
						}
					],
					"payable": false,
					"type": "function",
					"stateMutability": "view"
				},
				{
					"constant": false,
					"inputs": [
						{
							"name": "investor",
							"type": "address"
						},
						{
							"name": "usd_invested",
							"type": "uint256"
						}
					],
					"name": "buy_redcoins",
					"outputs": [],
					"payable": false,
					"type": "function",
					"stateMutability": "nonpayable"
				}
			],
			"devdoc": {
				"methods": {}
			},
			"evm": {
				"assembly": "    /* \"redcoins_ico.sol\":60:1710  contract redcoin_ico {\r... */\n  mstore(0x40, 0x60)\n    /* \"redcoins_ico.sol\":115:122  1000000 */\n  0xf4240\n    /* \"redcoins_ico.sol\":88:122  uint public max_redcoins = 1000000 */\n  0x0\n  sstore\n    /* \"redcoins_ico.sol\":207:211  1000 */\n  0x3e8\n    /* \"redcoins_ico.sol\":177:211  uint public usd_to_redcoins = 1000 */\n  0x1\n  sstore\n    /* \"redcoins_ico.sol\":284:285  0 */\n  0x0\n    /* \"redcoins_ico.sol\":248:285  uint public total_redcoins_bought = 0 */\n  0x2\n  sstore\n    /* \"redcoins_ico.sol\":60:1710  contract redcoin_ico {\r... */\n  jumpi(tag_1, iszero(callvalue))\n  invalid\ntag_1:\ntag_2:\n  dataSize(sub_0)\n  dup1\n  dataOffset(sub_0)\n  0x0\n  codecopy\n  0x0\n  return\nstop\n\nsub_0: assembly {\n        /* \"redcoins_ico.sol\":60:1710  contract redcoin_ico {\r... */\n      mstore(0x40, 0x60)\n      jumpi(tag_1, iszero(calldatasize))\n      calldataload(0x0)\n      0x100000000000000000000000000000000000000000000000000000000\n      swap1\n      div\n      0xffffffff\n      and\n      dup1\n      0x10c51c1b\n      eq\n      tag_2\n      jumpi\n      dup1\n      0x1a55e8a2\n      eq\n      tag_3\n      jumpi\n      dup1\n      0x1facd12d\n      eq\n      tag_4\n      jumpi\n      dup1\n      0x6a3e3cb6\n      eq\n      tag_5\n      jumpi\n      dup1\n      0xc7d9d96a\n      eq\n      tag_6\n      jumpi\n      dup1\n      0xc899ff4e\n      eq\n      tag_7\n      jumpi\n      dup1\n      0xdb3f290b\n      eq\n      tag_8\n      jumpi\n    tag_1:\n      invalid\n        /* \"redcoins_ico.sol\":925:1044  function equity_in_usd(address investor) external constant returns(uint) {\r... */\n    tag_2:\n      jumpi(tag_9, iszero(callvalue))\n      invalid\n    tag_9:\n      tag_10\n      0x4\n      dup1\n      dup1\n      calldataload\n      0xffffffffffffffffffffffffffffffffffffffff\n      and\n      swap1\n      0x20\n      add\n      swap1\n      swap2\n      swap1\n      pop\n      pop\n      jump(tag_11)\n    tag_10:\n      mload(0x40)\n      dup1\n      dup3\n      dup2\n      mstore\n      0x20\n      add\n      swap2\n      pop\n      pop\n      mload(0x40)\n      dup1\n      swap2\n      sub\n      swap1\n      return\n        /* \"redcoins_ico.sol\":177:211  uint public usd_to_redcoins = 1000 */\n    tag_3:\n      jumpi(tag_12, iszero(callvalue))\n      invalid\n    tag_12:\n      tag_13\n      jump(tag_14)\n    tag_13:\n      mload(0x40)\n      dup1\n      dup3\n      dup2\n      mstore\n      0x20\n      add\n      swap2\n      pop\n      pop\n      mload(0x40)\n      dup1\n      swap2\n      sub\n      swap1\n      return\n        /* \"redcoins_ico.sol\":248:285  uint public total_redcoins_bought = 0 */\n    tag_4:\n      jumpi(tag_15, iszero(callvalue))\n      invalid\n    tag_15:\n      tag_16\n      jump(tag_17)\n    tag_16:\n      mload(0x40)\n      dup1\n      dup3\n      dup2\n      mstore\n      0x20\n      add\n      swap2\n      pop\n      pop\n      mload(0x40)\n      dup1\n      swap2\n      sub\n      swap1\n      return\n        /* \"redcoins_ico.sol\":1459:1707  function sell_redcoins(address investor, uint redcoins_sold) external {\r... */\n    tag_5:\n      jumpi(tag_18, iszero(callvalue))\n      invalid\n    tag_18:\n      tag_19\n      0x4\n      dup1\n      dup1\n      calldataload\n      0xffffffffffffffffffffffffffffffffffffffff\n      and\n      swap1\n      0x20\n      add\n      swap1\n      swap2\n      swap1\n      dup1\n      calldataload\n      swap1\n      0x20\n      add\n      swap1\n      swap2\n      swap1\n      pop\n      pop\n      jump(tag_20)\n    tag_19:\n      stop\n        /* \"redcoins_ico.sol\":737:866  function equity_in_redcoins(address investor) external constant returns(uint) {\r... */\n    tag_6:\n      jumpi(tag_21, iszero(callvalue))\n      invalid\n    tag_21:\n      tag_22\n      0x4\n      dup1\n      dup1\n      calldataload\n      0xffffffffffffffffffffffffffffffffffffffff\n      and\n      swap1\n      0x20\n      add\n      swap1\n      swap2\n      swap1\n      pop\n      pop\n      jump(tag_23)\n    tag_22:\n      mload(0x40)\n      dup1\n      dup3\n      dup2\n      mstore\n      0x20\n      add\n      swap2\n      pop\n      pop\n      mload(0x40)\n      dup1\n      swap2\n      sub\n      swap1\n      return\n        /* \"redcoins_ico.sol\":88:122  uint public max_redcoins = 1000000 */\n    tag_7:\n      jumpi(tag_24, iszero(callvalue))\n      invalid\n    tag_24:\n      tag_25\n      jump(tag_26)\n    tag_25:\n      mload(0x40)\n      dup1\n      dup3\n      dup2\n      mstore\n      0x20\n      add\n      swap2\n      pop\n      pop\n      mload(0x40)\n      dup1\n      swap2\n      sub\n      swap1\n      return\n        /* \"redcoins_ico.sol\":1079:1425  function buy_redcoins(address investor, uint usd_invested) external\r... */\n    tag_8:\n      jumpi(tag_27, iszero(callvalue))\n      invalid\n    tag_27:\n      tag_28\n      0x4\n      dup1\n      dup1\n      calldataload\n      0xffffffffffffffffffffffffffffffffffffffff\n      and\n      swap1\n      0x20\n      add\n      swap1\n      swap2\n      swap1\n      dup1\n      calldataload\n      swap1\n      0x20\n      add\n      swap1\n      swap2\n      swap1\n      pop\n      pop\n      jump(tag_29)\n    tag_28:\n      stop\n        /* \"redcoins_ico.sol\":925:1044  function equity_in_usd(address investor) external constant returns(uint) {\r... */\n    tag_11:\n        /* \"redcoins_ico.sol\":992:996  uint */\n      0x0\n        /* \"redcoins_ico.sol\":1016:1026  equity_usd */\n      0x4\n        /* \"redcoins_ico.sol\":1016:1036  equity_usd[investor] */\n      0x0\n        /* \"redcoins_ico.sol\":1027:1035  investor */\n      dup4\n        /* \"redcoins_ico.sol\":1016:1036  equity_usd[investor] */\n      0xffffffffffffffffffffffffffffffffffffffff\n      and\n      0xffffffffffffffffffffffffffffffffffffffff\n      and\n      dup2\n      mstore\n      0x20\n      add\n      swap1\n      dup2\n      mstore\n      0x20\n      add\n      0x0\n      sha3\n      sload\n        /* \"redcoins_ico.sol\":1009:1036  return equity_usd[investor] */\n      swap1\n      pop\n        /* \"redcoins_ico.sol\":925:1044  function equity_in_usd(address investor) external constant returns(uint) {\r... */\n    tag_30:\n      swap2\n      swap1\n      pop\n      jump\t// out\n        /* \"redcoins_ico.sol\":177:211  uint public usd_to_redcoins = 1000 */\n    tag_14:\n      sload(0x1)\n      dup2\n      jump\t// out\n        /* \"redcoins_ico.sol\":248:285  uint public total_redcoins_bought = 0 */\n    tag_17:\n      sload(0x2)\n      dup2\n      jump\t// out\n        /* \"redcoins_ico.sol\":1459:1707  function sell_redcoins(address investor, uint redcoins_sold) external {\r... */\n    tag_20:\n        /* \"redcoins_ico.sol\":1569:1582  redcoins_sold */\n      dup1\n        /* \"redcoins_ico.sol\":1540:1555  equity_redcoins */\n      0x3\n        /* \"redcoins_ico.sol\":1540:1565  equity_redcoins[investor] */\n      0x0\n        /* \"redcoins_ico.sol\":1556:1564  investor */\n      dup5\n        /* \"redcoins_ico.sol\":1540:1565  equity_redcoins[investor] */\n      0xffffffffffffffffffffffffffffffffffffffff\n      and\n      0xffffffffffffffffffffffffffffffffffffffff\n      and\n      dup2\n      mstore\n      0x20\n      add\n      swap1\n      dup2\n      mstore\n      0x20\n      add\n      0x0\n      sha3\n      0x0\n        /* \"redcoins_ico.sol\":1540:1582  equity_redcoins[investor] -= redcoins_sold */\n      dup3\n      dup3\n      sload\n      sub\n      swap3\n      pop\n      pop\n      dup2\n      swap1\n      sstore\n      pop\n        /* \"redcoins_ico.sol\":1642:1646  1000 */\n      0x3e8\n        /* \"redcoins_ico.sol\":1616:1631  equity_redcoins */\n      0x3\n        /* \"redcoins_ico.sol\":1616:1641  equity_redcoins[investor] */\n      0x0\n        /* \"redcoins_ico.sol\":1632:1640  investor */\n      dup5\n        /* \"redcoins_ico.sol\":1616:1641  equity_redcoins[investor] */\n      0xffffffffffffffffffffffffffffffffffffffff\n      and\n      0xffffffffffffffffffffffffffffffffffffffff\n      and\n      dup2\n      mstore\n      0x20\n      add\n      swap1\n      dup2\n      mstore\n      0x20\n      add\n      0x0\n      sha3\n      sload\n        /* \"redcoins_ico.sol\":1616:1646  equity_redcoins[investor]/1000 */\n      dup2\n      iszero\n      iszero\n      tag_32\n      jumpi\n      invalid\n    tag_32:\n      div\n        /* \"redcoins_ico.sol\":1593:1603  equity_usd */\n      0x4\n        /* \"redcoins_ico.sol\":1593:1613  equity_usd[investor] */\n      0x0\n        /* \"redcoins_ico.sol\":1604:1612  investor */\n      dup5\n        /* \"redcoins_ico.sol\":1593:1613  equity_usd[investor] */\n      0xffffffffffffffffffffffffffffffffffffffff\n      and\n      0xffffffffffffffffffffffffffffffffffffffff\n      and\n      dup2\n      mstore\n      0x20\n      add\n      swap1\n      dup2\n      mstore\n      0x20\n      add\n      0x0\n      sha3\n        /* \"redcoins_ico.sol\":1593:1646  equity_usd[investor] = equity_redcoins[investor]/1000 */\n      dup2\n      swap1\n      sstore\n      pop\n        /* \"redcoins_ico.sol\":1682:1695  redcoins_sold */\n      dup1\n        /* \"redcoins_ico.sol\":1657:1678  total_redcoins_bought */\n      0x2\n      0x0\n        /* \"redcoins_ico.sol\":1657:1695  total_redcoins_bought -= redcoins_sold */\n      dup3\n      dup3\n      sload\n      sub\n      swap3\n      pop\n      pop\n      dup2\n      swap1\n      sstore\n      pop\n        /* \"redcoins_ico.sol\":1459:1707  function sell_redcoins(address investor, uint redcoins_sold) external {\r... */\n    tag_31:\n      pop\n      pop\n      jump\t// out\n        /* \"redcoins_ico.sol\":737:866  function equity_in_redcoins(address investor) external constant returns(uint) {\r... */\n    tag_23:\n        /* \"redcoins_ico.sol\":809:813  uint */\n      0x0\n        /* \"redcoins_ico.sol\":833:848  equity_redcoins */\n      0x3\n        /* \"redcoins_ico.sol\":833:858  equity_redcoins[investor] */\n      0x0\n        /* \"redcoins_ico.sol\":849:857  investor */\n      dup4\n        /* \"redcoins_ico.sol\":833:858  equity_redcoins[investor] */\n      0xffffffffffffffffffffffffffffffffffffffff\n      and\n      0xffffffffffffffffffffffffffffffffffffffff\n      and\n      dup2\n      mstore\n      0x20\n      add\n      swap1\n      dup2\n      mstore\n      0x20\n      add\n      0x0\n      sha3\n      sload\n        /* \"redcoins_ico.sol\":826:858  return equity_redcoins[investor] */\n      swap1\n      pop\n        /* \"redcoins_ico.sol\":737:866  function equity_in_redcoins(address investor) external constant returns(uint) {\r... */\n    tag_33:\n      swap2\n      swap1\n      pop\n      jump\t// out\n        /* \"redcoins_ico.sol\":88:122  uint public max_redcoins = 1000000 */\n    tag_26:\n      sload(0x0)\n      dup2\n      jump\t// out\n        /* \"redcoins_ico.sol\":1079:1425  function buy_redcoins(address investor, uint usd_invested) external\r... */\n    tag_29:\n        /* \"redcoins_ico.sol\":1194:1214  uint redcoins_bought */\n      0x0\n        /* \"redcoins_ico.sol\":1169:1181  usd_invested */\n      dup2\n        /* \"redcoins_ico.sol\":643:655  max_redcoins */\n      sload(0x0)\n        /* \"redcoins_ico.sol\":618:639  total_redcoins_bought */\n      sload(0x2)\n        /* \"redcoins_ico.sol\":600:615  usd_to_redcoins */\n      sload(0x1)\n        /* \"redcoins_ico.sol\":585:597  usd_invested */\n      dup4\n        /* \"redcoins_ico.sol\":585:615  usd_invested * usd_to_redcoins */\n      mul\n        /* \"redcoins_ico.sol\":585:639  usd_invested * usd_to_redcoins + total_redcoins_bought */\n      add\n        /* \"redcoins_ico.sol\":585:655  usd_invested * usd_to_redcoins + total_redcoins_bought <= max_redcoins */\n      gt\n      iszero\n        /* \"redcoins_ico.sol\":576:656  require (usd_invested * usd_to_redcoins + total_redcoins_bought <= max_redcoins) */\n      iszero\n      iszero\n      tag_35\n      jumpi\n      revert(0x0, 0x0)\n    tag_35:\n        /* \"redcoins_ico.sol\":1232:1247  usd_to_redcoins */\n      sload(0x1)\n        /* \"redcoins_ico.sol\":1217:1229  usd_invested */\n      dup4\n        /* \"redcoins_ico.sol\":1217:1247  usd_invested * usd_to_redcoins */\n      mul\n        /* \"redcoins_ico.sol\":1194:1247  uint redcoins_bought = usd_invested * usd_to_redcoins */\n      swap2\n      pop\n        /* \"redcoins_ico.sol\":1288:1303  redcoins_bought */\n      dup2\n        /* \"redcoins_ico.sol\":1258:1273  equity_redcoins */\n      0x3\n        /* \"redcoins_ico.sol\":1258:1283  equity_redcoins[investor] */\n      0x0\n        /* \"redcoins_ico.sol\":1274:1282  investor */\n      dup7\n        /* \"redcoins_ico.sol\":1258:1283  equity_redcoins[investor] */\n      0xffffffffffffffffffffffffffffffffffffffff\n      and\n      0xffffffffffffffffffffffffffffffffffffffff\n      and\n      dup2\n      mstore\n      0x20\n      add\n      swap1\n      dup2\n      mstore\n      0x20\n      add\n      0x0\n      sha3\n      0x0\n        /* \"redcoins_ico.sol\":1258:1303  equity_redcoins[investor]  += redcoins_bought */\n      dup3\n      dup3\n      sload\n      add\n      swap3\n      pop\n      pop\n      dup2\n      swap1\n      sstore\n      pop\n        /* \"redcoins_ico.sol\":1362:1366  1000 */\n      0x3e8\n        /* \"redcoins_ico.sol\":1336:1351  equity_redcoins */\n      0x3\n        /* \"redcoins_ico.sol\":1336:1361  equity_redcoins[investor] */\n      0x0\n        /* \"redcoins_ico.sol\":1352:1360  investor */\n      dup7\n        /* \"redcoins_ico.sol\":1336:1361  equity_redcoins[investor] */\n      0xffffffffffffffffffffffffffffffffffffffff\n      and\n      0xffffffffffffffffffffffffffffffffffffffff\n      and\n      dup2\n      mstore\n      0x20\n      add\n      swap1\n      dup2\n      mstore\n      0x20\n      add\n      0x0\n      sha3\n      sload\n        /* \"redcoins_ico.sol\":1336:1366  equity_redcoins[investor]/1000 */\n      dup2\n      iszero\n      iszero\n      tag_37\n      jumpi\n      invalid\n    tag_37:\n      div\n        /* \"redcoins_ico.sol\":1314:1324  equity_usd */\n      0x4\n        /* \"redcoins_ico.sol\":1314:1334  equity_usd[investor] */\n      0x0\n        /* \"redcoins_ico.sol\":1325:1333  investor */\n      dup7\n        /* \"redcoins_ico.sol\":1314:1334  equity_usd[investor] */\n      0xffffffffffffffffffffffffffffffffffffffff\n      and\n      0xffffffffffffffffffffffffffffffffffffffff\n      and\n      dup2\n      mstore\n      0x20\n      add\n      swap1\n      dup2\n      mstore\n      0x20\n      add\n      0x0\n      sha3\n        /* \"redcoins_ico.sol\":1314:1366  equity_usd[investor]= equity_redcoins[investor]/1000 */\n      dup2\n      swap1\n      sstore\n      pop\n        /* \"redcoins_ico.sol\":1402:1417  redcoins_bought */\n      dup2\n        /* \"redcoins_ico.sol\":1377:1398  total_redcoins_bought */\n      0x2\n      0x0\n        /* \"redcoins_ico.sol\":1377:1417  total_redcoins_bought += redcoins_bought */\n      dup3\n      dup3\n      sload\n      add\n      swap3\n      pop\n      pop\n      dup2\n      swap1\n      sstore\n      pop\n        /* \"redcoins_ico.sol\":667:668  _ */\n    tag_36:\n        /* \"redcoins_ico.sol\":1079:1425  function buy_redcoins(address investor, uint usd_invested) external\r... */\n    tag_34:\n      pop\n      pop\n      pop\n      pop\n      jump\t// out\n}\n",
				"bytecode": {
					"linkReferences": {},
					"object": "6060604052620f42406000556103e86001556000600255341561001e57fe5b5b6104e48061002e6000396000f30060606040523615610081576000357c0100000000000000000000000000000000000000000000000000000000900463ffffffff16806310c51c1b146100835780631a55e8a2146100cd5780631facd12d146100f35780636a3e3cb614610119578063c7d9d96a14610158578063c899ff4e146101a2578063db3f290b146101c8575bfe5b341561008b57fe5b6100b7600480803573ffffffffffffffffffffffffffffffffffffffff16906020019091905050610207565b6040518082815260200191505060405180910390f35b34156100d557fe5b6100dd610251565b6040518082815260200191505060405180910390f35b34156100fb57fe5b610103610257565b6040518082815260200191505060405180910390f35b341561012157fe5b610156600480803573ffffffffffffffffffffffffffffffffffffffff1690602001909190803590602001909190505061025d565b005b341561016057fe5b61018c600480803573ffffffffffffffffffffffffffffffffffffffff1690602001909190505061034f565b6040518082815260200191505060405180910390f35b34156101aa57fe5b6101b2610399565b6040518082815260200191505060405180910390f35b34156101d057fe5b610205600480803573ffffffffffffffffffffffffffffffffffffffff1690602001909190803590602001909190505061039f565b005b6000600460008373ffffffffffffffffffffffffffffffffffffffff1673ffffffffffffffffffffffffffffffffffffffff1681526020019081526020016000205490505b919050565b60015481565b60025481565b80600360008473ffffffffffffffffffffffffffffffffffffffff1673ffffffffffffffffffffffffffffffffffffffff168152602001908152602001600020600082825403925050819055506103e8600360008473ffffffffffffffffffffffffffffffffffffffff1673ffffffffffffffffffffffffffffffffffffffff168152602001908152602001600020548115156102f657fe5b04600460008473ffffffffffffffffffffffffffffffffffffffff1673ffffffffffffffffffffffffffffffffffffffff16815260200190815260200160002081905550806002600082825403925050819055505b5050565b6000600360008373ffffffffffffffffffffffffffffffffffffffff1673ffffffffffffffffffffffffffffffffffffffff1681526020019081526020016000205490505b919050565b60005481565b600081600054600254600154830201111515156103bc5760006000fd5b6001548302915081600360008673ffffffffffffffffffffffffffffffffffffffff1673ffffffffffffffffffffffffffffffffffffffff168152602001908152602001600020600082825401925050819055506103e8600360008673ffffffffffffffffffffffffffffffffffffffff1673ffffffffffffffffffffffffffffffffffffffff1681526020019081526020016000205481151561045c57fe5b04600460008673ffffffffffffffffffffffffffffffffffffffff1673ffffffffffffffffffffffffffffffffffffffff16815260200190815260200160002081905550816002600082825401925050819055505b5b505050505600a165627a7a723058206e0c01300f540a018e0a4c3e044644359b378dda17ca57b22d3a5078aa3b3d1e0029",
					"opcodes": "PUSH1 0x60 PUSH1 0x40 MSTORE PUSH3 0xF4240 PUSH1 0x0 SSTORE PUSH2 0x3E8 PUSH1 0x1 SSTORE PUSH1 0x0 PUSH1 0x2 SSTORE CALLVALUE ISZERO PUSH2 0x1E JUMPI INVALID JUMPDEST JUMPDEST PUSH2 0x4E4 DUP1 PUSH2 0x2E PUSH1 0x0 CODECOPY PUSH1 0x0 RETURN STOP PUSH1 0x60 PUSH1 0x40 MSTORE CALLDATASIZE ISZERO PUSH2 0x81 JUMPI PUSH1 0x0 CALLDATALOAD PUSH29 0x100000000000000000000000000000000000000000000000000000000 SWAP1 DIV PUSH4 0xFFFFFFFF AND DUP1 PUSH4 0x10C51C1B EQ PUSH2 0x83 JUMPI DUP1 PUSH4 0x1A55E8A2 EQ PUSH2 0xCD JUMPI DUP1 PUSH4 0x1FACD12D EQ PUSH2 0xF3 JUMPI DUP1 PUSH4 0x6A3E3CB6 EQ PUSH2 0x119 JUMPI DUP1 PUSH4 0xC7D9D96A EQ PUSH2 0x158 JUMPI DUP1 PUSH4 0xC899FF4E EQ PUSH2 0x1A2 JUMPI DUP1 PUSH4 0xDB3F290B EQ PUSH2 0x1C8 JUMPI JUMPDEST INVALID JUMPDEST CALLVALUE ISZERO PUSH2 0x8B JUMPI INVALID JUMPDEST PUSH2 0xB7 PUSH1 0x4 DUP1 DUP1 CALLDATALOAD PUSH20 0xFFFFFFFFFFFFFFFFFFFFFFFFFFFFFFFFFFFFFFFF AND SWAP1 PUSH1 0x20 ADD SWAP1 SWAP2 SWAP1 POP POP PUSH2 0x207 JUMP JUMPDEST PUSH1 0x40 MLOAD DUP1 DUP3 DUP2 MSTORE PUSH1 0x20 ADD SWAP2 POP POP PUSH1 0x40 MLOAD DUP1 SWAP2 SUB SWAP1 RETURN JUMPDEST CALLVALUE ISZERO PUSH2 0xD5 JUMPI INVALID JUMPDEST PUSH2 0xDD PUSH2 0x251 JUMP JUMPDEST PUSH1 0x40 MLOAD DUP1 DUP3 DUP2 MSTORE PUSH1 0x20 ADD SWAP2 POP POP PUSH1 0x40 MLOAD DUP1 SWAP2 SUB SWAP1 RETURN JUMPDEST CALLVALUE ISZERO PUSH2 0xFB JUMPI INVALID JUMPDEST PUSH2 0x103 PUSH2 0x257 JUMP JUMPDEST PUSH1 0x40 MLOAD DUP1 DUP3 DUP2 MSTORE PUSH1 0x20 ADD SWAP2 POP POP PUSH1 0x40 MLOAD DUP1 SWAP2 SUB SWAP1 RETURN JUMPDEST CALLVALUE ISZERO PUSH2 0x121 JUMPI INVALID JUMPDEST PUSH2 0x156 PUSH1 0x4 DUP1 DUP1 CALLDATALOAD PUSH20 0xFFFFFFFFFFFFFFFFFFFFFFFFFFFFFFFFFFFFFFFF AND SWAP1 PUSH1 0x20 ADD SWAP1 SWAP2 SWAP1 DUP1 CALLDATALOAD SWAP1 PUSH1 0x20 ADD SWAP1 SWAP2 SWAP1 POP POP PUSH2 0x25D JUMP JUMPDEST STOP JUMPDEST CALLVALUE ISZERO PUSH2 0x160 JUMPI INVALID JUMPDEST PUSH2 0x18C PUSH1 0x4 DUP1 DUP1 CALLDATALOAD PUSH20 0xFFFFFFFFFFFFFFFFFFFFFFFFFFFFFFFFFFFFFFFF AND SWAP1 PUSH1 0x20 ADD SWAP1 SWAP2 SWAP1 POP POP PUSH2 0x34F JUMP JUMPDEST PUSH1 0x40 MLOAD DUP1 DUP3 DUP2 MSTORE PUSH1 0x20 ADD SWAP2 POP POP PUSH1 0x40 MLOAD DUP1 SWAP2 SUB SWAP1 RETURN JUMPDEST CALLVALUE ISZERO PUSH2 0x1AA JUMPI INVALID JUMPDEST PUSH2 0x1B2 PUSH2 0x399 JUMP JUMPDEST PUSH1 0x40 MLOAD DUP1 DUP3 DUP2 MSTORE PUSH1 0x20 ADD SWAP2 POP POP PUSH1 0x40 MLOAD DUP1 SWAP2 SUB SWAP1 RETURN JUMPDEST CALLVALUE ISZERO PUSH2 0x1D0 JUMPI INVALID JUMPDEST PUSH2 0x205 PUSH1 0x4 DUP1 DUP1 CALLDATALOAD PUSH20 0xFFFFFFFFFFFFFFFFFFFFFFFFFFFFFFFFFFFFFFFF AND SWAP1 PUSH1 0x20 ADD SWAP1 SWAP2 SWAP1 DUP1 CALLDATALOAD SWAP1 PUSH1 0x20 ADD SWAP1 SWAP2 SWAP1 POP POP PUSH2 0x39F JUMP JUMPDEST STOP JUMPDEST PUSH1 0x0 PUSH1 0x4 PUSH1 0x0 DUP4 PUSH20 0xFFFFFFFFFFFFFFFFFFFFFFFFFFFFFFFFFFFFFFFF AND PUSH20 0xFFFFFFFFFFFFFFFFFFFFFFFFFFFFFFFFFFFFFFFF AND DUP2 MSTORE PUSH1 0x20 ADD SWAP1 DUP2 MSTORE PUSH1 0x20 ADD PUSH1 0x0 SHA3 SLOAD SWAP1 POP JUMPDEST SWAP2 SWAP1 POP JUMP JUMPDEST PUSH1 0x1 SLOAD DUP2 JUMP JUMPDEST PUSH1 0x2 SLOAD DUP2 JUMP JUMPDEST DUP1 PUSH1 0x3 PUSH1 0x0 DUP5 PUSH20 0xFFFFFFFFFFFFFFFFFFFFFFFFFFFFFFFFFFFFFFFF AND PUSH20 0xFFFFFFFFFFFFFFFFFFFFFFFFFFFFFFFFFFFFFFFF AND DUP2 MSTORE PUSH1 0x20 ADD SWAP1 DUP2 MSTORE PUSH1 0x20 ADD PUSH1 0x0 SHA3 PUSH1 0x0 DUP3 DUP3 SLOAD SUB SWAP3 POP POP DUP2 SWAP1 SSTORE POP PUSH2 0x3E8 PUSH1 0x3 PUSH1 0x0 DUP5 PUSH20 0xFFFFFFFFFFFFFFFFFFFFFFFFFFFFFFFFFFFFFFFF AND PUSH20 0xFFFFFFFFFFFFFFFFFFFFFFFFFFFFFFFFFFFFFFFF AND DUP2 MSTORE PUSH1 0x20 ADD SWAP1 DUP2 MSTORE PUSH1 0x20 ADD PUSH1 0x0 SHA3 SLOAD DUP2 ISZERO ISZERO PUSH2 0x2F6 JUMPI INVALID JUMPDEST DIV PUSH1 0x4 PUSH1 0x0 DUP5 PUSH20 0xFFFFFFFFFFFFFFFFFFFFFFFFFFFFFFFFFFFFFFFF AND PUSH20 0xFFFFFFFFFFFFFFFFFFFFFFFFFFFFFFFFFFFFFFFF AND DUP2 MSTORE PUSH1 0x20 ADD SWAP1 DUP2 MSTORE PUSH1 0x20 ADD PUSH1 0x0 SHA3 DUP2 SWAP1 SSTORE POP DUP1 PUSH1 0x2 PUSH1 0x0 DUP3 DUP3 SLOAD SUB SWAP3 POP POP DUP2 SWAP1 SSTORE POP JUMPDEST POP POP JUMP JUMPDEST PUSH1 0x0 PUSH1 0x3 PUSH1 0x0 DUP4 PUSH20 0xFFFFFFFFFFFFFFFFFFFFFFFFFFFFFFFFFFFFFFFF AND PUSH20 0xFFFFFFFFFFFFFFFFFFFFFFFFFFFFFFFFFFFFFFFF AND DUP2 MSTORE PUSH1 0x20 ADD SWAP1 DUP2 MSTORE PUSH1 0x20 ADD PUSH1 0x0 SHA3 SLOAD SWAP1 POP JUMPDEST SWAP2 SWAP1 POP JUMP JUMPDEST PUSH1 0x0 SLOAD DUP2 JUMP JUMPDEST PUSH1 0x0 DUP2 PUSH1 0x0 SLOAD PUSH1 0x2 SLOAD PUSH1 0x1 SLOAD DUP4 MUL ADD GT ISZERO ISZERO ISZERO PUSH2 0x3BC JUMPI PUSH1 0x0 PUSH1 0x0 REVERT JUMPDEST PUSH1 0x1 SLOAD DUP4 MUL SWAP2 POP DUP2 PUSH1 0x3 PUSH1 0x0 DUP7 PUSH20 0xFFFFFFFFFFFFFFFFFFFFFFFFFFFFFFFFFFFFFFFF AND PUSH20 0xFFFFFFFFFFFFFFFFFFFFFFFFFFFFFFFFFFFFFFFF AND DUP2 MSTORE PUSH1 0x20 ADD SWAP1 DUP2 MSTORE PUSH1 0x20 ADD PUSH1 0x0 SHA3 PUSH1 0x0 DUP3 DUP3 SLOAD ADD SWAP3 POP POP DUP2 SWAP1 SSTORE POP PUSH2 0x3E8 PUSH1 0x3 PUSH1 0x0 DUP7 PUSH20 0xFFFFFFFFFFFFFFFFFFFFFFFFFFFFFFFFFFFFFFFF AND PUSH20 0xFFFFFFFFFFFFFFFFFFFFFFFFFFFFFFFFFFFFFFFF AND DUP2 MSTORE PUSH1 0x20 ADD SWAP1 DUP2 MSTORE PUSH1 0x20 ADD PUSH1 0x0 SHA3 SLOAD DUP2 ISZERO ISZERO PUSH2 0x45C JUMPI INVALID JUMPDEST DIV PUSH1 0x4 PUSH1 0x0 DUP7 PUSH20 0xFFFFFFFFFFFFFFFFFFFFFFFFFFFFFFFFFFFFFFFF AND PUSH20 0xFFFFFFFFFFFFFFFFFFFFFFFFFFFFFFFFFFFFFFFF AND DUP2 MSTORE PUSH1 0x20 ADD SWAP1 DUP2 MSTORE PUSH1 0x20 ADD PUSH1 0x0 SHA3 DUP2 SWAP1 SSTORE POP DUP2 PUSH1 0x2 PUSH1 0x0 DUP3 DUP3 SLOAD ADD SWAP3 POP POP DUP2 SWAP1 SSTORE POP JUMPDEST JUMPDEST POP POP POP POP JUMP STOP LOG1 PUSH6 0x627A7A723058 SHA3 PUSH15 0xC01300F540A018E0A4C3E04464435 SWAP12 CALLDATACOPY DUP14 0xda OR 0xca JUMPI 0xb2 0x2d GASPRICE POP PUSH25 0xAA3B3D1E002900000000000000000000000000000000000000 "
				},
				"gasEstimates": {
					"creation": {
						"codeDepositCost": "250400",
						"executionCost": "45308",
						"totalCost": "295708"
					},
					"external": {
						"buy_redcoins(address,uint256)": "62180",
						"equity_in_redcoins(address)": "615",
						"equity_in_usd(address)": "527",
						"max_redcoins()": "493",
						"sell_redcoins(address,uint256)": "61241",
						"total_redcoins_bought()": "427",
						"usd_to_redcoins()": "405"
					}
				},
				"methodIdentifiers": {
					"buy_redcoins(address,uint256)": "db3f290b",
					"equity_in_redcoins(address)": "c7d9d96a",
					"equity_in_usd(address)": "10c51c1b",
					"max_redcoins()": "c899ff4e",
					"sell_redcoins(address,uint256)": "6a3e3cb6",
					"total_redcoins_bought()": "1facd12d",
					"usd_to_redcoins()": "1a55e8a2"
				}
			},
			"userdoc": {
				"methods": {}
			}
		}
	}
}